{"abi":[{"type":"constructor","inputs":[{"name":"poolAddress","type":"address","internalType":"address"}],"stateMutability":"nonpayable"},{"type":"function","name":"executeFlashLoan","inputs":[{"name":"amount","type":"uint256","internalType":"uint256"}],"outputs":[],"stateMutability":"nonpayable"},{"type":"function","name":"onFlashLoan","inputs":[{"name":"initiator","type":"address","internalType":"address"},{"name":"token","type":"address","internalType":"address"},{"name":"amount","type":"uint256","internalType":"uint256"},{"name":"fee","type":"uint256","internalType":"uint256"},{"name":"","type":"bytes","internalType":"bytes"}],"outputs":[{"name":"","type":"bytes32","internalType":"bytes32"}],"stateMutability":"nonpayable"},{"type":"function","name":"owner","inputs":[],"outputs":[{"name":"","type":"address","internalType":"address"}],"stateMutability":"view"},{"type":"function","name":"transferOwnership","inputs":[{"name":"newOwner","type":"address","internalType":"address"}],"outputs":[],"stateMutability":"nonpayable"},{"type":"event","name":"OwnershipTransferred","inputs":[{"name":"user","type":"address","indexed":true,"internalType":"address"},{"name":"newOwner","type":"address","indexed":true,"internalType":"address"}],"anonymous":false},{"type":"error","name":"UnexpectedFlashLoan","inputs":[]}],"bytecode":{"object":"0x60a060405234801561001057600080fd5b5060405161076e38038061076e83398101604081905261002f91610081565b600080546001600160a01b031916339081178255604051909182917f8be0079c531659141344cd1fd0a4f28419497f9722a3daafe3b4186f6b6457e0908290a3506001600160a01b03166080526100b1565b60006020828403121561009357600080fd5b81516001600160a01b03811681146100aa57600080fd5b9392505050565b6080516106876100e76000396000818160ea01528181610115015281816101ea01528181610379015261042001526106876000f3fe608060405234801561001057600080fd5b506004361061004c5760003560e01c806323e30c8b146100515780638da5cb5b14610077578063f2fde38b146100a2578063fb056f68146100b7575b600080fd5b61006461005f3660046104ba565b6100ca565b6040519081526020015b60405180910390f35b60005461008a906001600160a01b031681565b6040516001600160a01b03909116815260200161006e565b6100b56100b0366004610564565b610293565b005b6100b56100c5366004610588565b61032c565b60006001600160a01b0387163014158061010d5750336001600160a01b037f00000000000000000000000000000000000000000000000000000000000000001614155b806101ab57507f00000000000000000000000000000000000000000000000000000000000000006001600160a01b03166338d52e0f6040518163ffffffff1660e01b8152600401602060405180830381865afa158015610171573d6000803e3d6000fd5b505050506040513d601f19601f8201168201806040525081019061019591906105a1565b6001600160a01b0316866001600160a01b031614155b806101b557508315155b156101d357604051630182c53960e11b815260040160405180910390fd5b60405163095ea7b360e01b81526001600160a01b037f0000000000000000000000000000000000000000000000000000000000000000811660048301526024820187905287169063095ea7b3906044016020604051808303816000875af1158015610242573d6000803e3d6000fd5b505050506040513d601f19601f8201168201806040525081019061026691906105be565b507f0947cd39683897964c4681f2a9ace479400f0bd467117d0ae02e99e303012ade979650505050505050565b6000546001600160a01b031633146102e15760405162461bcd60e51b815260206004820152600c60248201526b15539055551213d49256915160a21b60448201526064015b60405180910390fd5b600080546001600160a01b0319166001600160a01b0383169081178255604051909133917f8be0079c531659141344cd1fd0a4f28419497f9722a3daafe3b4186f6b6457e09190a350565b6000546001600160a01b031633146103755760405162461bcd60e51b815260206004820152600c60248201526b15539055551213d49256915160a21b60448201526064016102d8565b60007f00000000000000000000000000000000000000000000000000000000000000006001600160a01b03166338d52e0f6040518163ffffffff1660e01b8152600401602060405180830381865afa1580156103d5573d6000803e3d6000fd5b505050506040513d601f19601f820116820180604052508101906103f991906105a1565b60408051602081018252600081529051632e7ff4ef60e11b81529192506001600160a01b037f00000000000000000000000000000000000000000000000000000000000000001691635cffe9de9161045a91309186918891906004016105e0565b6020604051808303816000875af1158015610479573d6000803e3d6000fd5b505050506040513d601f19601f8201168201806040525081019061049d91906105be565b505050565b6001600160a01b03811681146104b757600080fd5b50565b60008060008060008060a087890312156104d357600080fd5b86356104de816104a2565b955060208701356104ee816104a2565b94506040870135935060608701359250608087013567ffffffffffffffff8082111561051957600080fd5b818901915089601f83011261052d57600080fd5b81358181111561053c57600080fd5b8a602082850101111561054e57600080fd5b6020830194508093505050509295509295509295565b60006020828403121561057657600080fd5b8135610581816104a2565b9392505050565b60006020828403121561059a57600080fd5b5035919050565b6000602082840312156105b357600080fd5b8151610581816104a2565b6000602082840312156105d057600080fd5b8151801515811461058157600080fd5b600060018060a01b038087168352602081871681850152856040850152608060608501528451915081608085015260005b8281101561062d5785810182015185820160a001528101610611565b5050600060a0828501015260a0601f19601f8301168401019150509594505050505056fea264697066735822122021222765d41ae28cba00dbdc4a7fb1e13c756815661d59232a6eb6ff2c85c0fd64736f6c63430008150033","linkReferences":{}},"methodIdentifiers":{"executeFlashLoan(uint256)":"fb056f68","onFlashLoan(address,address,uint256,uint256,bytes)":"23e30c8b","owner()":"8da5cb5b","transferOwnership(address)":"f2fde38b"},"id":32}